:020000040000FA
:06000000000015EF00F006
:020006000000F8
:040008006CEF00F0A9
:04001800D5EF0CF024
:06002A00A6EC10F0C2EC90
:100030000CF094EC02F026EC00F086EC0EF063EC91
:1000400000F0B1EC00F0F28EF28C01D0120000B2A0
:1000500032EC00F000B4B5EC00F000B679EC00F042
:1000600027EF00F00400009200844AEC00F0416A9F
:10007000415041EC00F0412A160E4162F9D7009040
:10008000120000905FEC0BF068C042F000B00BEC87
:100090000EF01200010E036E012A02E1038C022A07
:1000A00001503F0B01E1038A01500F0B01E103886E
:1000B0000150070B01E103860150030B01E10384AA
:1000C00001A003821200076A066A056A010E046E27
:1000D0000096A7EC00F012000E6ED8CF0FF0DC0EE9
:1000E000D66E0B0ED76E0086F2940E500FC0D8FF5E
:1000F00010000096062A06503C080AE1066A010E26
:1001000089EC00F004C046F005C047F0FAEC00F0BE
:100110001200052605503B0807E7056A042A04502B
:100120000D0802E1046A042A1200055E055009E781
:100130003C0F056E0406045002E601E012000C0EAE
:10014000046E1200060ED56EF294F29A1200860E1C
:10015000D56EDC0ED66E0B0ED76EF294F28AF18459
:1001600012000094086A0A6A12000094CBEC00F0B6
:1001700008A0120008B203D00B06D8A412003C0E4F
:100180000B6E050E89EC00F004C046F005C047F088
:10019000FAEC00F012000892089408B0DAEF00F0D0
:1001A00080B01200092A09500808D8A81200088255
:1001B0000880120080A0120009060950D8A412007D
:1001C000088408901200F7EC00F01200FD0E016E9A
:1001D0004AEC00F0E8EF00F0030E4AEC00F041ECCE
:1001E00000F0EDEF00F063EC00F0110EFED732EC02
:0401F00000F0120009
:0C01F4004750340DF4CF48F0F350050DD7
:10020000F4CF49F04850060805E746500C08D8B42A
:10021000466A462A0DEC01F01200150E416E426A44
:100220000BEC0EF04106FBE7020EFA6E4844320F6B
:10023000F96E1DD023D03BD04DD05FD071D08FD080
:10024000A1D0B9D0D1D0E3D0FBD0020EFA6E464493
:10025000540FF96E0ED114D11AD120D126D12CD140
:1002600032D138D13ED144D14AD150D156D1FF0EEE
:10027000426E150E416E0BEC0EF0E7D7FF0E426E8C
:10028000000E416E0BEC0EF0FF0E426E050E416E3D
:100290000BEC0EF0FF0E426E060E416E0BEC0EF0F4
:1002A000FF0E426E070E416E0BEC0EF0CED7FF0E26
:1002B000426E000E416E0BEC0EF0FF0E426E020E0F
:1002C000416E0BEC0EF0FF0E426E070E416E0BEC12
:1002D0000EF0BBD7FF0E426E000E416E0BEC0EF01F
:1002E000FF0E426E030E416E0BEC0EF0FF0E426EDF
:1002F000070E416E0BEC0EF0A8D7FF0E426E000EFB
:10030000416E0BEC0EF0FF0E426E040E416E0BECD4
:100310000EF0FF0E426E070E416E0BEC0EF095D7FD
:10032000FF0E426E000E416E0BEC0EF0FF0E426EA1
:10033000040E416E0BEC0EF0FF0E426E050E416E88
:100340000BEC0EF0FF0E426E060E416E0BEC0EF043
:10035000FF0E426E070E416E0BEC0EF076D7FF0ECD
:10036000426E000E416E0BEC0EF0FF0E426E010E5F
:10037000416E0BEC0EF0FF0E426E070E416E0BEC61
:100380000EF063D7FF0E426E000E416E0BEC0EF0C6
:10039000FF0E426E040E416E0BEC0EF0FF0E426E2D
:1003A000050E416E0BEC0EF0FF0E426E080E416E14
:1003B0000BEC0EF04AD7FF0E426E000E416E0BECB6
:1003C0000EF0FF0E426E040E416E0BEC0EF0FF0EAF
:1003D000426E060E416E0BEC0EF0FF0E426E080EE2
:1003E000416E0BEC0EF031D7FF0E426E000E416EE7
:1003F0000BEC0EF0FF0E426E030E416E0BEC0EF096
:10040000FF0E426E080E416E0BEC0EF01ED7FF0E73
:10041000426E000E416E0BEC0EF0FF0E426E020EAD
:10042000416E0BEC0EF0FF0E426E060E416E0BECB1
:100430000EF0FF0E426E080E416E0BEC0EF005D76B
:10044000FF0E426E000E416E0BEC0EF0FF0E426E80
:10045000050E416E0BEC0EF0FF0E426E060E416E65
:100460000BEC0EF0FF0E426E080E416E0BEC0EF020
:10047000ECD6FF0E426E090E416E0BEC0EF0E5D687
:10048000FF0E426E090E416E0BEC0EF0DED6FF0E33
:10049000426E0A0E416E0BEC0EF0D7D6FF0E426E86
:1004A0000B0E416E0BEC0EF0D0D6FF0E426E0C0E12
:1004B000416E0BEC0EF0C9D6FF0E426E0D0E416E72
:1004C0000BEC0EF0C2D6FF0E426E0E0E416E0BEC20
:1004D0000EF0BBD6FF0E426E0F0E416E0BEC0EF00F
:1004E000B4D6FF0E426E100E416E0BEC0EF0ADD680
:1004F000FF0E426E110E416E0BEC0EF0A6D6FF0EF3
:10050000426E120E416E0BEC0EF09FD6FF0E426E45
:10051000130E416E0BEC0EF098D6FF0E426E140EC9
:10052000416E0BEC0EF091D6C9EC02F0D8EC02F063
:10053000E8EC02F010EC03F01200CEEC02F002D076
:10054000D3EC02F0D8EC02F04C50000A01E01200AB
:10055000C9EC02F0D8EC02F01200B3EC02F002E1B8
:1005600010EC03F01200E3EC02F0E8EC02F04E5065
:100570000AE14F50000A09E04F50010A08E1D8ECA7
:1005800002F0E8EC02F0D884000CD894000CD89467
:10059000010C250E4A6E3C0E4B6E1200020E4B26CD
:1005A000000E4A221200020E4B5E000E4A5A120042
:1005B0004AC0F7FF4BC0F6FF0900F5CF4DF0090028
:1005C000F5CF4CF01200020E4D26000E4C22120008
:1005D0004CC0F7FF4DC0F6FF0900F5CF4FF0090002
:1005E000F5CF4EF012006350FE0A08E06350FF0A98
:1005F00003E097EC0CF002E0ADEC02F01200250EE7
:10060000F76E420EF66E5144F626000EF7220900F0
:10061000F5CF4FF00800F5CF4EF010EC03F01200CC
:100620004FC0F6FF4EC0F7FFFE0E636E1BEC03F0EB
:10063000D8B4FCD712000900F550060802E2D8949D
:10064000070CF544F7CF0CF0F6CF0DF06C0FF66EFB
:10065000060EF76ED8B0F72A0900F5500800F5CF5E
:10066000FAFF0CC0F7FF0DC0F6FFF96E7A067E06A2
:1006700084068A06BA06BC06BE06D894000C62EC54
:1006800003F01ED0DFEC03F01BD00900F5CF5CF0C7
:100690000900F550010A02E0D894010CF7CF5DF093
:1006A000F6CF5EF05DC0F7FF5EC0F6FF62EC03F0D0
:1006B000D8A4010C5C2EF6D703D002D001D000D014
:1006C000D88412000900F55041EC0BF0D8A4010CBD
:1006D00010EE71F0E66E556E546E543A0F0E5516CC
:1006E00054160900F5CF57F05444F7CF0CF0F6CF6D
:1006F0000DF0120FF66E070EF76ED8B0F72A09004C
:10070000F5500800F5CFFAFF0CC0F7FF0DC0F6FF5B
:10071000F96E200724072407460724075E074807C9
:10072000D894060C55C05BF05B2A0900F5CF59F050
:1007300057B024EC04F059C0E6FF57425B2EF5D7C2
:10074000DAEC03F0120012000900F5CF59F057B0AF
:1007500024EC04F059C0E6FFDAEC03F012005A6A08
:100760005550070809E257C058F00B00F5CF57F075
:100770005A80080E5B6E03D055C05BF05B2A0900FF
:10078000F5CF59F057B024EC04F059C0E6FF5742BA
:100790005B2EF5D75AA00ED0070E555C5B6E090094
:1007A000F5CF59F058B024EC04F059C0E6FF584298
:1007B0005B2EF5D710EE71F084EC0AF01200090000
:1007C000F5504AEC05F00900F5501A0802E2D894F9
:1007D000040CF544F7CF0CF0F6CF0DF0FC0FF66EDD
:1007E000070EF76ED8B0F72A0900F5500800F5CFCC
:1007F000FAFF0CC0F7FF0DC0F6FFF96E3E083E0889
:1008000032083208320832083E083208320832080C
:1008100032083808320832083808380832083208F6
:1008200038083208320838083808320832083E08DA
:1008300032080900F5CFE6FF0900F5CFE6FF090011
:10084000F5CFE6FFD8841200595056EC05F0D8A435
:10085000030CE2CF52F0E1CF53F059504AEC05F0CF
:10086000E6CF5FF05F505BEC05F005E052C0E2FFC1
:1008700053C0E1FF040CE6CF60F0E6CF61F0E7CFB4
:1008800062F0E550E5505F44F7CF0CF0F6CF0DF085
:10089000B00FF66E080EF76ED8B0F72A0900F550C3
:1008A0000800F5CFFAFF0CC0F7FF0DC0F6FFF96E98
:1008B000E608E808F008020916092A093E0946096F
:1008C0005A0972098A09A209AC09BA09CA09E409D4
:1008D000000A1E0A3E0A480A560A660A660A660A9C
:1008E000660A680A720AD0D060C059F0E72ACCD0F4
:1008F00060C059F0E72A6150E764C6D062C0E7FFE4
:10090000C3D060C059F0020EE7266150E764BCD046
:1009100062C0E7FFB9D060C059F0030EE72661500E
:10092000E764B2D062C0E7FFAFD060C059F0040EF8
:10093000E7266150E764A8D062C0E7FFA5D060C099
:1009400059F0E706A1D060C059F0E7066250E75CB5
:1009500001E39AD061C0E7FF97D060C059F0020E62
:10096000E75E04E66250E75C01E38ED061C0E7FF1A
:100970008BD060C059F0030EE75E04E66250E75C7E
:10098000F5E382D061C0E7FF7FD060C059F0040E6C
:10099000E75E04E66250E75CE9E376D061C0E7FF1A
:1009A00073D061506024E76E596E6ED06150602440
:1009B000E76E6250E714596E67D061506024E76EAD
:1009C0006250E714E76E596E5FD0615056EC05F047
:1009D00002E0596A59D0615050EC05F0DC506024B7
:1009E000596E52D0615056EC05F002E0596A4CD075
:1009F000615050EC05F0DC506024596EE76E44D035
:100A0000615056EC05F002E0596A3ED0615050EC5E
:100A100005F0DC5060246250E714596E35D0615007
:100A200056EC05F002E0596A2FD0615050EC05F009
:100A3000DC5060246250E714596EE76E25D0615097
:100A4000605CE76E596E20D06150605CE76E62506A
:100A5000E714596E19D06150605CE76E6250E7147C
:100A6000E76E596E11D010D060EC05F0E76E596E4C
:100A70000BD060EC05F0E76E606E6250615C600266
:100A8000F4506224596E00D052C0E2FF53C0E1FF1F
:100A9000D8841200E16EE146E146000EE26E1200DB
:100AA000D96ED946D946000EDA6E12000008D884F5
:100AB00001E2D894030C1A08D88401E2D894040CFB
:100AC000604401E1010E60B8010A60BA010A60B633
:100AD000010A12006DEC05F01200506A010E516E11
:100AE000FFEC02F0120094EC02F09DEC02F09DECA1
:100AF00002F0A0EC02F0A0EC02F0A0EC02F0ADECF1
:100B000002F01200200E4E6E900E4F6E10EC03F0AD
:100B100012001F0EF76E840EF66E0B00DFEC03F072
:100B20001F0EF76E880EF66E0B00DFEC03F01F0E43
:100B3000F76E8C0EF66E0B00DFEC03F01F0EF76EF7
:100B4000920EF66E0B00DFEC03F01F0EF76E980EA0
:100B5000F66E0B00DFEC03F01F0EF76E9E0EF66EC6
:100B60000B00DFEC03F01F0EF76E9E0EF66E0B000F
:100B7000DFEC03F01F0EF76EA40EF66E0B00DFEC39
:100B800003F01F0EF76EA80EF66E0B00DFEC03F0FD
:100B90001F0EF76EAE0EF66E0B00DFEC03F01F0EAD
:100BA000F76EB40EF66E0B00DFEC03F01F0EF76E5F
:100BB000BA0EF66E0B00DFEC03F01F0EF76EC00EE0
:100BC000F66E0B00DFEC03F01F0EF76EC50EF66E2F
:100BD0000B00DFEC03F01F0EF76ECB0EF66E0B0072
:100BE000DFEC03F01F0EF76ED10EF66E0B00DFEC9C
:100BF00003F01F0EF76ED70EF66E0B00DFEC03F05E
:100C00001F0EF76EDD0EF66E0B00DFEC03F01F0E0D
:100C1000F76EE30EF66E0B00DFEC03F01F0EF76EBF
:100C2000E90EF66E0B00DFEC03F01F0EF76EEE0E12
:100C3000F66E0B00DFEC03F01F0EF76EF40EF66E8F
:100C40000B00DFEC03F01F0EF76EFA0EF66E0B00D2
:100C5000DFEC03F0200EF76E000EF66E0B00DFECFB
:100C600003F0200EF76E060EF66E0B00DFEC03F0BD
:100C7000200EF76E0C0EF66E0B00DFEC03F0200E6C
:100C8000F76E120EF66E0B00DFEC03F0200EF76E1F
:100C9000160EF66E0B00DFEC03F01200000E596E1C
:100CA00024EC04F0010E596E24EC04F0020E596E8F
:100CB00024EC04F0FBD7030E596E24EC04F0040E70
:100CC000596E24EC04F0050E596E24EC04F0060E67
:100CD000596E24EC04F0070E596E24EC04F0080E53
:100CE000596E24EC04F0090E596E24EC04F00A0E3F
:100CF000596E24EC04F00B0E596E24EC04F00C0E2B
:100D0000596E24EC04F00D0E596E24EC04F00E0E16
:100D1000596E24EC04F00F0E596E24EC04F0100E02
:100D2000596E24EC04F0110E596E24EC04F0120EEE
:100D3000596E24EC04F0130E596E24EC04F0140EDA
:100D4000596E24EC04F0150E596E24EC04F0160EC6
:100D5000596E24EC04F0170E596E24EC04F0180EB2
:100D6000596E24EC04F0190E596E24EC04F01A0E9E
:100D7000596E24EC04F01200200EF76E570EF66E3A
:100D80000B0062EC03F01200200EF76E610EF66E9F
:060D90001BEC03F0120051
:0A0D9600000001110000000111002F
:100DA0000100011100020001110003000111000403
:100DB00000011100050001110006000111000700EB
:100DC00001110008000111001500000111000000D0
:100DD00001110001000111000200011100030001D6
:100DE00011000400011100050001110006000111AD
:100DF000000700011100080001110015FF0001119A
:100E00000000FF01110001000111000200011100AA
:100E10000300011100040001110005FF011100068B
:100E2000FF01110007FF011100080001110015006A
:100E30000001110000FF011100010001110002FF7B
:100E4000011100030001110004000111000500015F
:100E50001100060001110007FF0111000800011137
:100E60000015000001110000FF0111000100011137
:100E700000020001110003FF011100040001110034
:100E80000500011100060001110007FF0111000813
:100E90000001110015000001110000FF0111000107
:100EA000000111000200011100030001110004FF04
:100EB0000111000500011100060001110007FF01EA
:100EC0001100080001110015000001110000FF01D0
:100ED00011000100011100020001110003000111C5
:100EE0000004FF01110005FF01110006FF011100C0
:100EF00007FF011100080001110015000001110099
:100F000000FF01110001FF011100020001110003A7
:100F1000000111000400011100050001110006008C
:100F200001110007FF011100080001110015000068
:100F300001110000FF011100010001110002000178
:100F40001100030001110004FF01110005FF011150
:100F5000000600011100070001110008FF01110047
:100F600015000001110000FF011100010001110036
:100F70000200011100030001110004FF011100052E
:100F80000001110006FF011100070001110008FF18
:100F900001110015000001110000FF011100010006
:100FA000011100020001110003FF01110004000102
:100FB00011000500011100060001110007000111D8
:100FC0000008FF01110015000001110000FF0111D0
:100FD00000010001110002FF0111000300011100D6
:100FE0000400011100050001110006FF01110007B6
:100FF0000001110008FF011100150000011100009F
:10100000FF011100010001110002000111000300A5
:10101000011100040001110005FF01110006FF018C
:101020001100070001110008FF0111001500000167
:10103000110009000111000A000111000B0001114B
:10104000000C000111000D000111000E0001110043
:101050000F00011100100001110011000111001218
:10106000000111001300011100140000011100091A
:10107000FF0111000A000111000B000111000C001A
:101080000111000D000111000E000111000F0001FF
:1010900011001000011100110001110012000111D6
:1010A00000130001110014000001110009000111DA
:1010B000000AFF0111000B000111000C00011100DA
:1010C0000D000111000E000111000F0001110010B0
:1010D00000011100110001110012000111001300A4
:1010E00001110014000001110009000111000A00A3
:1010F0000111000BFF0111000C000111000D000196
:1011000011000E000111000F00011100100001116B
:101110000011000111001200011100130001110063
:1011200014000001110009000111000A0001110062
:101130000B000111000CFF0111000D000111000E48
:10114000000111000F000111001000011100110039
:101150000111001200011100130001110014000020
:1011600001110009000111000A000111000B00012A
:1011700011000C000111000DFF0111000E00011102
:10118000000F0001110010000111001100011100F9
:1011900012000111001300011100140000011100E0
:1011A00009000111000A000111000B000111000CDF
:1011B000000111000D000111000EFF0111000F00D0
:1011C00001110010000111001100011100120001B5
:1011D00011001300011100140000011100090001A9
:1011E00011000A000111000B000111000C00011197
:1011F000000D000111000E000111000FFF01110090
:101200001000011100110001110012000111001362
:101210000001110014000001110009000111000A71
:10122000000111000B000111000C000111000D0064
:101230000111000E000111000F0001110010FF014B
:101240001100110001110012000111001300011121
:101250000014000001110009000111000A00011131
:10126000000B000111000C000111000D0001110024
:101270000E000111000F00011100100001110011FA
:10128000FF011100120001110013000111001400F0
:101290000001110009000111000A000111000B00FA
:1012A0000111000C000111000D000111000E0001E0
:1012B00011000F00011100100001110011000111B7
:1012C0000012FF01110013000111001400000111B0
:1012D0000009000111000A000111000B00011100BA
:1012E0000C000111000D000111000E000111000F92
:1012F0000001110010000111001100011100120085
:1013000001110013FF011100140000011100090078
:101310000111000A000111000B000111000C000175
:1013200011000D000111000E000111000F0001114C
:101330000010000111001100011100120001110044
:10134000130001110014FF000111000080011100C1
:1013500001800111000280011100038001110004CD
:101360008001110005800111000680011100078035
:10137000011100088001110009800111000A80019B
:1013800011000B800111000C800111000D80011172
:10139000000E800111000F8001110010800111006A
:1013A000118001110012800111001380011100143D
:1013B0008001110015800001110000FF01110001E2
:1013C0000001110002FF011100030001110004FFE0
:1013D000011100050001110006FF011100070001C5
:1013E000110008FF01110009000111000AFF01119D
:1013F000000B000111000CFF0111000D0001110094
:101400000EFF0111000F0001110010FF011100116A
:101410000001110012FF011100130001110014FF5F
:101420000111001500000111000000011100010070
:10143000011100020001110003000111000400016C
:101440001100050001110006000111000700011143
:1014500000080001110009000111000A000111003B
:101460000B000111000C000111000D000111000E14
:10147000000111000F000111001000011100110006
:1014800001110012000111001300011100140001EC
:10149000110015000001110000FF01110001FF0102
:1014A000110002FF01110003FF01110004FF0111EF
:1014B0000005FF01110006FF01110007FF011100E7
:1014C00008FF01110009FF0111000AFF0111000BC3
:1014D000FF0111000CFF0111000DFF0111000EFFB3
:1014E0000111000FFF01110010FF01110011FF0198
:1014F000110012FF01110013FF01110014FF01116F
:081500000015FF016000FE0070
:08150800E65041EC0BF0D8A401
:10151000010C6F6E6E6E6E3A0F0E6F166E166E4485
:10152000F7CF0CF0F6CF0DF0480FF66E150EF76EF4
:10153000D8B0F72A0900F5500800F5CFFAFF0CC023
:10154000F7FF0DC0F6FFF96E56155A157615C6153C
:10155000CA1502167A16D894050CE6501F0BA2EC99
:101560000CF0090EDE6EE6CFDEFFFF0EDE6E010E22
:10157000DF6ED8841200E6447E0B136E1344A2EC97
:101580000CF0090EDE6EE6CFDEFFFF0EDE6E010E02
:10159000DF6E13440109A2EC0CF0090EDE6EE6CFFB
:1015A000DEFFFF0EDE6E010EDF6E13440209A2ECB9
:1015B0000CF0090EDE6EE6CFDEFFFF0EDE6E010ED2
:1015C000DF6ED8841200D8841200E650696EE750AE
:1015D0006C6EA2EC0CF0DF5012E0DACF6AF0D9CFDB
:1015E0006BF06950A2EC0CF0080EDE6EDE506C5011
:1015F000DE6E010EDE6E6BC0DEFF6AC0DEFFD884D9
:101600001200E650A2EC0CF0030EE6CFDBFF040E56
:10161000E6CFDBFFDB2A060EE6CFDBFF080EE6CFC8
:10162000DBFF070EE6CFDBFF090EE6CFDBFF070E81
:101630006F5C16E30C0EE6CFDBFF080E6F5C12E367
:101640000A0EE6CFDBFF090E6F5C0EE30B0EE6CF52
:10165000DBFF0A0E6F5C0BE3050EE6CFDBFF09D064
:101660000C0EDB6A0A0EDB6A0B0EDB6ADB06050E6C
:10167000DB6A010EDF6ED8841200E650636ED884F8
:1016800012006E6E6E50110A17E06E50410A14E09F
:101690006E50560A11E06E50570A0EE06E50580A0E
:1016A0000BE06E50590A08E06E505A0A05E06E5081
:1016B000600A02E0D894010C6E50D88412004150A8
:1016C000A2EC0CF0010EDBCF68F0000EDF6412001C
:1016D000030EDB50031401E11200DF44F7CF0CF0DE
:1016E000F6CF0DF0040FF66E170EF76ED8B0F72A8E
:1016F0000900F5500800F5CFFAFF0CC0F7FF0DC048
:10170000F6FFF96E1A1726175017901716185C185F
:101710006618AE18F4181E192C19010EDB506862F9
:101720000080686E1200040EDB2E1200050EDB50E6
:101730005BE00B0EDB506D6E686020D0050EDBCFDA
:1017400069F06DC06AF0685062EC0CF0020EDF6E5A
:10175000050EDBCF6BF0040EDBCF6AF00B0EDBCF98
:101760006DF0020ED9266B50DD266A50DD2226E28E
:10177000010EDB506D5C22E021E3CFD7050EDBCFFD
:1017800069F068C06AF06D5062EC0CF0030EDF6E19
:10179000050EDBCF6BF0040EDBCF6AF00B0EDBCF58
:1017A0006DF0020ED9266B50DD5E6A50DD5A06E3FD
:1017B000010EDB506D5C02E001E2AFD76DC0DCFFD3
:1017C000DD50060EDBCF69F06DC06AF00A0EDB500B
:1017D00062EC0CF0070EDBCF69F06DC06AF00A0E08
:1017E000DB506EEC0CF030D00B0EDB506D6E060E45
:1017F000DBCF69F06DC06AF00A0EDB5062EC0CF0D2
:10180000070EDBCF69F06DC06AF00A0EDB506EEC9C
:101810000CF0040EDF6E050EDBCF6BF0040EDBCF99
:101820006AF00B0EDBCF6DF0020ED9266B50DD2671
:101830006A50DD2206E2010EDB506D5C02E001E33E
:101840006CD76DC0DCFFDD50080EDBCF69F0020EF7
:1018500069C0DBFFDB2A050EDF6E5FD7020EDB2ED1
:101860005CD7060EDF6E050EDBCF6BF0040EDBCF10
:101870006AF00A0EDBCF6CF0020ED9266B50DD5EEB
:101880006A50DD5A08E3010EDBCF6AF06C506A5CE7
:1018900002E001E342D76CC0DCFFDD50090EDBCF74
:1018A00069F0020E69C0DBFFDB2A070EDF6E020E55
:1018B000DB2E33D70C0EDB52ACE0DB2EAAD7000EAA
:1018C000DF6E2BD76A5E6950DDEC12F06A02040EFF
:1018D000F4CFDBFF050EF3CFDBFF12006A5E695029
:1018E000DDEC12F06A02060EF4CFDBFF070EF3CF39
:1018F000DBFF1200040EDBCFE1FF050EDBCFE2FFC2
:10190000E6CF69F0E7CF6AF0010E6AC0DBFF6A50EC
:1019100068620080686E695201E1DF6A1200DC5083
:10192000686EDCA01200DF6A00801200F6D6A2EC1E
:101930000CF0D8A41200DF50000A02E0D894000C8A
:10194000D884000CF7CF0CF0F6CF0DF0696E1908B3
:1019500016E3820EF66ED8906934F626250EF76EE1
:10196000D8B0F72A0900F5CFD9FF0800F55007E0F5
:10197000DA6E0CC0F7FF0DC0F6FFD8841200020E1D
:04198000D8941200E5
:0C198400FE0E896EFF0E8A6EFF0E8B6E49
:10199000FF0E8C6E170E8D6E126A00EE40F0FF0E79
:1019A000ED6E190EE960FBD71200106ED8CF11F062
:1019B000190EFA6E1244BA0FF96E1CD02BD03AD021
:1019C00049D058D067D076D085D094D0A3D0F3D06A
:1019D00002D1B0D0BFD0EFD0FED0CDD0DCD0EBD094
:1019E000FAD0C9D0D8D0E7D006D110509E9011C0FF
:1019F000D8FF1000FF0ECF6EBF0ECE6E122A19C098
:101A000089FF1AC08AFF1BC08BFF1CC08CFF1DC042
:101A10008DFFEBD7FF0ECF6E710ECE6E122AFE0E2B
:101A2000896EFF0E8A6EFF0E8B6EFF0E8C6E170E88
:101A30008D6EDBD7FF0ECF6E710ECE6E122A1EC0DA
:101A400089FF1FC08AFF20C08BFF21C08CFF22C0EE
:101A50008DFFCBD7FE0ECF6ED40ECE6E122AFE0EA9
:101A6000896EFF0E8A6EFF0E8B6EFF0E8C6E170E48
:101A70008D6EBBD7FE0ECF6ED40ECE6E122A23C053
:101A800089FF24C08AFF25C08BFF26C08CFF27C09A
:101A90008DFFABD7FD0ECF6E9A0ECE6E122AFE0EC4
:101AA000896EFF0E8A6EFF0E8B6EFF0E8C6E170E08
:101AB0008D6E9BD7FD0ECF6E9A0ECE6E122A28C069
:101AC00089FF29C08AFF2AC08BFF2BC08CFF2CC046
:101AD0008DFF8BD7FB0ECF6E270ECE6E122AFE0E19
:101AE000896EFF0E8A6EFF0E8B6EFF0E8C6E170EC8
:101AF0008D6E7BD7FB0ECF6E270ECE6E122A2DC0B9
:101B000089FF2EC08AFF2FC08BFF30C08CFF31C0F1
:101B10008DFF6BD7F60ECF6E400ECE6E122AFE0EE4
:101B2000896EFF0E8A6EFF0E8B6EFF0E8C6E170E87
:101B30008D6E5BD7F60ECF6E400ECE6E122A32C07F
:101B400089FF33C08AFF34C08BFF35C08CFF36C09D
:101B50008DFF4BD7EC0ECF6E720ECE6E122AFE0E9C
:101B6000896EFF0E8A6EFF0E8B6EFF0E8C6E170E47
:101B70008D6E00823AD7F60ECF6E400ECE6E122AD0
:101B800037C089FF38C08AFF39C08BFF3AC08CFF4D
:101B90003BC08DFF2AD7EC0ECF6E720ECE6E122A8E
:101BA000FE0E896EFF0E8A6EFF0E8B6EFF0E8C6E20
:101BB000170E8D6E1AD7F60ECF6E400ECE6E122A0D
:101BC0003CC089FF3DC08AFF3EC08BFF3FC08CFFF9
:101BD00040C08DFF0AD7EC0ECF6E720ECE6E122A69
:101BE000FE0E896EFF0E8A6EFF0E8B6EFF0E8C6EE0
:101BF000170E8D6EFAD6EC0ECF6E720ECE6E126A86
:101C0000FE0E896EFF0E8A6EFF0E8B6EFF0E8C6EBF
:101C1000170E8D6EEAD641507BEC0EF017E1240EC4
:101C2000F76ED20EF66E4144F626000EF72209003A
:101C3000F5CF13F00800F5CF14F042C015F027ECF3
:101C40000EF01450136E02E627EC0EF01200135043
:101C500076EC0EF04AE1240EF76EFE0EF66E13449B
:101C6000F626000EF7220900F5CF16F00800F55011
:101C7000176EFF0A186EE26A190E1624E16E1750ED
:101C8000E712185015B0E716050EE1261750E712B7
:101C9000185015B2E716050EE1261750E712185036
:101CA00015B4E716050EE1261750E712185015B6C1
:101CB000E716050EE1261750E712185015B8E7167B
:101CC000050EE1261750E712185015BAE716050E53
:101CD000E1261750E712185015BCE716050EE1264D
:0C1CE0001750E712185015BEE71612004E
:041CEC001D08D88473
:101CF00001E2D89412001508D88401E2D8941200A9
:101D0000800ECD6E9E909D909F901200810ECD6EA4
:101D1000BF0ECE6EFF0ECF6E9E909D809F901200E4
:101D2000010E926E000E936E000E946E000E956E74
:101D3000E80E966E1200EDEC0EF0120080EC0EF044
:101D4000000E836EFFD7000E136EFF0E156E27EC8C
:101D50000EF0000E136E000E156E27EC0EF0000E46
:101D6000136E110E156E27EC0EF0010E136E220E7F
:101D7000156E27EC0EF0020E136E330E156E27EC67
:101D80000EF0040E136E440E156E27EC0EF0050EC9
:101D9000136E550E156E27EC0EF0060E136E660EC2
:101DA000156E27EC0EF0080E136E770E156E27ECED
:101DB0000EF0090E136E880E156E27EC0EF01E0E37
:101DC000136E990E156E27EC0EF01F0E136EAA0EF1
:101DD000156E27EC0EF012001200000E136EFF0EAF
:101DE000156E27EC0EF0010E136EFF0E156E27EC2C
:101DF0000EF0020E136EFF0E156E27EC0EF0030EA2
:101E0000136EFF0E156E27EC0EF0040E136EFF0E10
:101E1000156E27EC0EF012001CD023D02AD031D042
:101E200038D03FD046D04DD054D05BD062D069D0AE
:101E300070D077D07ED085D08CD093D09AD0F40E4D
:101E4000CF6E470ECE6E122A896A8A6A8B6AF5EFC8
:101E50000CF0F40ECF6E470ECE6E8980122AF5EF8D
:101E60000CF0F40ECF6E470ECE6E8982122AF5EF7B
:101E70000CF0F40ECF6E470ECE6E8984122AF5EF69
:101E80000CF0F40ECF6E470ECE6E8986122AF5EF57
:101E90000CF0F40ECF6E470ECE6E8988122AF5EF45
:101EA0000CF0F40ECF6E470ECE6E898A122AF5EF33
:101EB0000CF0F40ECF6E470ECE6E898C122AF5EF21
:101EC0000CF0F40ECF6E470ECE6E898E122AF5EF0F
:101ED0000CF0F40ECF6E470ECE6E8A80122AF5EF0C
:101EE0000CF0F40ECF6E470ECE6E8A82122AF5EFFA
:101EF0000CF0F40ECF6E470ECE6E8A84122AF5EFE8
:101F00000CF0F40ECF6E470ECE6E8A86122AF5EFD5
:101F10000CF0F40ECF6E470ECE6E8A88122AF5EFC3
:101F20000CF0F40ECF6E470ECE6E8A8A122AF5EFB1
:101F30000CF0F40ECF6E470ECE6E8A8C122AF5EF9F
:101F40000CF0F40ECF6E470ECE6E8A8E122AF5EF8D
:101F50000CF0F40ECF6E470ECE6E8B80122AF5EF8A
:101F60000CF0F40ECF6E470ECE6E8B82122AF5EF78
:101F70000CF0F40ECF6E470ECE6E122A8B84126ACE
:041F8000F5EF0CF07D
:0C1F8400020000AA020101020202020198
:101F90000400020303010600020404010600020516
:101FA00005010700020606020207070108040208ED
:101FB00008010800020909011000020A0A011000C4
:101FC000020B0B0207020C0C02071F020D0D020789
:101FD0001F020E0E020000020F0F0200000210107E
:101FE000020000021111020000021212020102138B
:101FF0001302010702141402010702151502000062
:10200000021616020000021717020000021818023A
:102010000000021919CB021A1ACB887801560F1743
:1020200001020304050601570F23010203040506FC
:10203000070158000F230102030405060708015A8F
:10204000000F230102030405060708090A01560FC1
:1020500023010203040506015600050100FFFFFFEE
:10206000FF02040500FF00015601040100FFFFFF0D
:10207000FF015601040100FFFFFFFF0156010401AB
:1020800000FFFFFFFF015601040100FFFFFFFF00FB
:10209000012300000000FF01230001000080012354
:1020A00000020000000123000300000001230004DF
:1020B00000000001230005000000012300060000CD
:1020C00000012300070000000123000800000001B8
:1020D0002300090000000123000A00000001230082
:1020E0000B0000000123000C0000000123000D0084
:1020F00000000123000E0000000123000F0000007B
:102100000123001000000001230011000000012342
:10211000001200000001230013000000012300143E
:10212000000000012300150000000123001600003C
:102130000001230017000000012300180000000127
:0B214000230019000000016000FE00F9
:04214C00E06AC4EC95
:1021500010F0D0EC10F0D5EC10F0DBEC10F0E6EC69
:1021600010F090EC0EF016EC11F010EC11F0A2EC67
:1021700000F080EC0EF0F4EC10F002EC11F01DEC2D
:1021800011F02EEC11F01200800ED06EF26AF16A9E
:10219000F06A9E6AA16A9D6AA06A9F6AA26A12009A
:1021A000700ED36E5F0E9B6E1200000ED16E120089
:1021B000010ED16E120002EEFFF0ED6AEA50D8A4D3
:1021C000FCD7E950D8A4F9D7EF6A1200000EC26E0E
:1021D0000F0EC16E000EC06E1200000EC26E0F0E0A
:1021E000C16E000EC06E1200000ECA6E9E929D92CD
:1021F0009F921200040ECA6E000ECC6E000ECB6EC3
:102200009E921200800EB16E9E929D929F9212003D
:10221000810EB16E000EB26E000EB36E9E92120071
:10222000070EB46E000EB56EA19C1200000EBD6EBE
:102230009E94000EBA6EA1901200000EC76E000EA2
:10224000C66E000EC56E1200000EC76E000EC66E82
:10225000000EC56E948694889E961200260EAC6E73
:10226000100EAB6E000EB86E9E9A9D9A9F9A9E9825
:102270009D989F981200A60EAC6E900EAB6E000E4D
:10228000B86E000EB06E000EAF6E9E9A9D8A9F9A39
:102290009E989D889F98AB98AB881200800EA66E82
:0222A00012002A
:0E22A2006FEC11F01200000EDDEC12F0010ED8
:1022B000DDEC12F0020EDDEC12F0030EDDEC12F09C
:1022C000400EDDEC12F0800EDDEC12F0E00EDDECE5
:1022D00012F0FE0EDDEC12F0FF0EDDEC12F0000E3F
:1022E000A2EC0CF0010EA2EC0CF0020EA2EC0CF031
:1022F000040EA2EC0CF0080EA2EC0CF00C0EA2ECFA
:102300000CF0100EA2EC0CF0140EA2EC0CF0180E57
:10231000A2EC0CF01C0EA2EC0CF0030EA2EC0CF0E4
:10232000200EA2EC0CF0FC0EA2EC0CF01200000E41
:10233000E06E130E716F050E726F800E736FF00EEC
:10234000746FDE0E756FE06A10EE71F084EC0AF0C7
:102350001200FF0E706E7006BAEC11F07006BAEC47
:1023600011F0700604E0BAEC11F07006F4D7BAEC84
:1023700011F01200000EE06E460E470E480E490E98
:102380004A0E716F7050726F010E736F020E746F90
:10239000030E756F040E766F020E776F060E786F60
:1023A000000E796F020E7A6FF00E7B6F070E7C6F56
:1023B000E06A10EE71F084EC0AF01200010E036E78
:1023C000006A050E416E150EA2EC0CF05FEC0BF0EE
:0223D0001200F9
:0E23D200FF805540332A24201C1917151312C2
:1023E00011100F0E0D0C0C0B0B0A0A090909080835
:1023F0000808070707070606060606060505050579
:102400000505050505040404040404040404040487
:102410000404040303030303030303030303030389
:102420000303030303030303020202020202020284
:10243000020202020202020202020202020202027C
:10244000020202020202020202020202020202026C
:102450000202020101010101010101010101010169
:10246000010101010101010101010101010101015C
:10247000010101010101010101010101010101014C
:10248000010101010101010101010101010101013C
:10249000010101010101010101010101010101012C
:1024A000010101010101010101010101010101011C
:1024B000010101010101010101010101010101010C
:1024C00001010101010101010101010101010101FC
:0224D000010108
:0E24D20000FF01FF02FF0304050607FF0809D3
:1024E0000AFF0BFF0CFF0DFF0E0F10FF11FF12FF75
:1024F000131415FF16FF17FF18191A1B1C1D0202D3
:10250000030103040308022002010208030202403F
:10251000032002040210040401020310028003409D
:1025200004020020000803800101040100100004DF
:0A253000000201200110010401085F
:06253A00000044254825C5
:10254000000000004813000026140000CB0DFE0D13
:10255000310E640E970ECA0EFD0E300F630F960FEC
:10256000C90FFC0FB7132F106C10A910E610231120
:1025700060119D11DA11171254129112CE120B1321
:02258000B7138F
:0E25820000010D011A012701340141014E0133
:102590005B016801750182018F019C01A901B601EF
:1025A000C301D001DD01EA0100020D021A02270277
:0A25B000340241024E020000000058
:0625BA00D20FF66E230EA5
:0C25C000F76ED8B0F72A0800F5501200A2
:020000040030CA
:0100010006F8
:0100020001FC
:0100030006F6
:0100050001F9
:010006008178
:010008000FE8
:01000900C036
:01000A000FE6
:01000B00E014
:01000C000FE4
:00000001FF
